:10000000B0C00000C9C00000C7C00000C5C00000EB
:10001000C3C00000C1C00000BFC00000BDC00000E0
:10002000BBC00000B9C00000E3C30000B5C00000C1
:10003000B3C00000B1C00000AFC00000ADC0000000
:10004000ABC00000A9C00000A7C00000A5C0000010
:10005000A3C00000A1C000009FC000009DC0000020
:100060009BC0000099C0000097C0000095C0000030
:1000700093C0000091C000008FC000008DC0000040
:100080008BC0000089C0000087C0000085C0000050
:1000900083C0000081C000007FC000007DC0000060
:1000A0007BC0000079C0000077C000001E034C0038
:1000B00055004600410020004D0049004400490021
:1000C0002000440065006D006F000000180344002C
:1000D000650061006E002000430061006D00650056
:1000E00072006100000004030904090265000201B6
:1000F00000C03209040000000101000009240100D1
:1001000001090001010904010002010300000724A4
:10011000010001410006240201010006240202023E
:100120000009240301030102010009240302040160
:10013000010100090501024000050000052501013B
:100140000109058202400005000005250101031296
:1001500001100100000008EB03482001000102002B
:10016000010011241FBECFEFDAE0DEBFCDBF11E0EA
:10017000A0E0B1E0E2E2FDE002C005900D92AC30FB
:10018000B107D9F721E0ACE0B1E001C01D92A9317F
:10019000B207E1F777D0C3C533CFCF93DF9300D059
:1001A00000D0CDB7DEB79BE0998390EB9A838B8329
:1001B0006C83BE016F5F7F4F80E091E063D580E08C
:1001C00091E082D50F900F900F900F90DF91CF911B
:1001D000089580FF02C08C9A01C08C9881FF02C0F4
:1001E0008D9A01C08D9882FF02C08E9A01C08E98B0
:1001F00083FF02C08E9A08958E98089584B7877FF2
:1002000084BF0FB6F894A8958091600088618093B0
:100210006000109260000FBE90E080E80FB6F89486
:1002200080936100909361000FBEC5D284B1806657
:1002300084B980B3806780BB2D98ECE7F0E08081C3
:100240008F7780838081806480838081877C8083B6
:10025000808187608083EAE7F0E080818760808327
:10026000808180688083089580917A008064809383
:100270007A0080917A0086FDFCCF80917800909181
:1002800079000895CF93DF93CDB7DEB7A0970FB66F
:10029000F894DEBF0FBECDBFB1DF7894CE0181965A
:1002A000FE01319611921192E817F907D9F7CE01A4
:1002B00001967C0100E010E0C8018BDFD5DF6C0106
:1002C000F701808191819601281B390B37FF03C00C
:1002D0003195219531092730310564F0B60183E06D
:1002E000769567958A95E1F782E090E056DFF70111
:1002F000D182C08280E091E002D593D40F5F1F4F7E
:10030000F2E0EF0EF11C00311105B1F6D0CF0895E7
:10031000089580E091E09FC40895292F332722306B
:10032000310559F02330310569F021303105F9F4F8
:1003300082E190E02FE431E01EC085E690E02AEEF5
:1003400030E019C099278130910541F08230910544
:1003500041F0892B61F4E6EEF0E005C0ECECF0E052
:1003600002C0ECEAF0E0849190E09F0104C080E0DC
:1003700090E020E030E0FA01318320830895CF92AD
:10038000DF92EF92FF920F931F93CF93DF93EC01D5
:100390008B017A019ED1811133C0E114F10439F04F
:1003A000F70180819181081B190BC80FD91FC12C3F
:1003B000D12C0115110519F18091E80085FD16C0B9
:1003C0008091E8008E778093E8002BD4E114F1044B
:1003D00049F0F70180819181C80ED91ED182C08277
:1003E00085E00EC076D1882321F30AC089918093DD
:1003F000F10001501109FFEFCF1ADF0ADACF80E0D8
:10040000DF91CF911F910F91FF90EF90DF90CF90F0
:10041000089520911701309118012617370748F0E9
:100420006115710539F42091E8002E772093E800DA
:1004300001C0B90140E061157105A9F120911001D9
:10044000222309F443C0253009F442C02091E8007A
:1004500023FD40C02091E80022FD32C02091E80039
:1004600020FFE9CF4091F3002091F20030E0342BDF
:10047000FC01CF016115710559F02830310540F4B8
:1004800081918093F100615071092F5F3F4FF1CF4F
:1004900041E02830310509F040E02091E8002E7756
:1004A0002093E800C8CF4111C9CF0AC08091100144
:1004B000882361F0853061F08091E80083FD0AC0F7
:1004C0008091E80082FFF2CF80E0089582E00895F5
:1004D00083E0089581E0089520911701309118017B
:1004E0002617370748F06115710539F42091E800A7
:1004F0002E772093E80001C0B901FC0120E06115CE
:10050000710591F180911001882309F440C0853074
:1005100009F43FC08091E80083FD3DC08091E80070
:1005200082FD2FC08091E80080FFE9CF2091F30089
:100530008091F20090E0922B6115710559F088309E
:10054000910540F424912093F10031966150710996
:100550000196F2CF21E0089709F020E08091E800B1
:100560008E778093E800CBCF2111CCCF0AC0809149
:100570001001882361F0853061F08091E80083FDEF
:100580000AC08091E80082FFF2CF80E0089582E007
:10059000089583E0089581E00895982F973058F5E5
:1005A0009093E900981739F07091EC002091ED00DC
:1005B0005091F00003C0242F762F50E021FF19C086
:1005C0003091EB003E7F3093EB003091ED003D7FAA
:1005D0003093ED003091EB0031603093EB0070937D
:1005E000EC002093ED005093F0002091EE0027FFE7
:1005F00007C09F5FD3CF8F708093E90081E008959B
:1006000080E00895EF92FF920F931F93CF93DF93B3
:10061000E62EEC018C010C5F1F4FF12CFE1491F1C2
:100620005881552351F1F801208169817A813197F0
:100630009081852F8F70873010F080E024C02230A9
:1006400010F442E001C046E0E8E0F0E020E0E61708
:10065000F70720F42F5FEE0FFF1FF9CF2295207FC1
:10066000422BF0E49F9F90011124551F5527551FE1
:10067000652F622B92DF882301F3F39425960B5F9D
:100680001F4FCCCF81E0DF91CF911F910F91FF9051
:10069000EF9008958091110187FF11C08091E800CB
:1006A00082FD05C0809110018111F8CF11C08091A9
:1006B000E8008B770BC080911001882349F080916E
:1006C000E80080FFF8CF8091E8008E778093E80003
:1006D00008952091E4003091E50095E64091EC000A
:1006E000842F817040FF22C08091E80080FD1CC0F3
:1006F00080911001882391F0853091F08091EB007A
:1007000085FD10C04091E4005091E5004217530769
:1007100029F39A01915011F784E0089582E0089539
:1007200083E0089581E0089580E008954091E80015
:1007300042FFDECF08950F931F93CF93DF934BD0EB
:1007400052D0C8EDD0E088818F7788838881806817
:10075000888388818F7D888319BC10921001109244
:100760000C0110920E0110920D0100EE10E0F80144
:1007700080818B7F808388818160888342E060E014
:1007800080E00BDFE1EEF0E080818E7F8083E2EE9F
:10079000F0E0808181608083808188608083F801BF
:1007A00080818E7F8083888180618883DF91CF9173
:1007B0001F910F910895E8EDF0E080818F7E808396
:1007C000E7EDF0E080818160808384E082BF81E09A
:1007D00080930F01B0CFE8EDF0E080818E7F8083C1
:1007E0001092E20008951092DA001092E10008954C
:1007F0001F920F920FB60F9211242F933F934F9396
:100800005F936F937F938F939F93AF93BF93EF9378
:10081000FF938091E10082FF0AC08091E20082FF95
:1008200006C08091E1008B7F8093E100F9D1809137
:10083000DA0080FF1DC08091D80080FF19C0809130
:10084000DA008E7F8093DA008091D90080FF0CC09F
:1008500080E189BD82E189BD09B400FEFDCF81E060
:100860008093100154DD04C019BC1092100150DDBA
:100870008091E10080FF18C08091E20080FF14C0E9
:100880008091E2008E7F8093E2008091E20080619F
:100890008093E2008091D80080628093D80019BCD8
:1008A00085E080931001BCD18091E10084FF2FC0CE
:1008B0008091E20084FF2BC080E189BD82E189BD87
:1008C00009B400FEFDCF8091D8008F7D8093D800C1
:1008D0008091E1008F7E8093E1008091E2008F7E25
:1008E0008093E2008091E20081608093E200809139
:1008F0000C01882311F084E007C08091E30087FD9C
:1009000002C081E001C083E08093100189D1809111
:10091000E10083FF22C08091E20083FF1EC080912E
:10092000E100877F8093E10082E0809310011092C4
:100930000C018091E1008E7F8093E1008091E200C4
:100940008E7F8093E2008091E20080618093E200DC
:1009500042E060E080E021DE63D1FF91EF91BF9142
:10096000AF919F918F917F916F915F914F913F9147
:100970002F910F900FBE0F901F9018951F93CF933C
:10098000DF93CDB7DEB7AA970FB6F894DEBF0FBEE0
:10099000CDBFE1E1F1E088E08E0F9091F1009193FD
:1009A0008E13FBCFB9DC8091E80083FF21C18091D9
:1009B000110190911201953009F478C030F4913012
:1009C00081F168F0933069F113C1983009F4E2C005
:1009D000993009F4F1C0963009F00AC189C0803815
:1009E00081F0823809F004C1809115018F708093E5
:1009F000E9008091EB0085FB882780F91092E900DF
:100A000006C080910D0190910E019111826090912C
:100A1000E800977F9093E8008093F1001092F10036
:100A2000C4C0282F2D7F09F0E3C0882319F082303D
:100A300061F0DEC080911301813009F0D9C093309C
:100A400009F080E080930E012BC080911301811189
:100A500027C0809115018F7009F4CAC08093E90006
:100A60002091EB0020FF1CC0933021F48091EB001B
:100A7000806214C09091EB0090619093EB0021E0B4
:100A800030E0A90102C0440F551F8A95E2F7409358
:100A9000EA001092EA008091EB0088608093EB00FE
:100AA0001092E9008091E800877F82C08111A0C088
:100AB000109113011F778091E3008078812B809340
:100AC000E3008091E800877F8093E800E3DD809178
:100AD000E80080FFFCCF8091E30080688093E30012
:100AE000111102C082E001C083E08093100180C038
:100AF0008058823008F07CC08091130190911401DD
:100B00008C3D53E0950771F583E08A838AE28983FF
:100B10004FB7F894DE01139620E03EE051E2E32F58
:100B2000F0E050935700E49120FF03C0E295EF708E
:100B30003F5FEF708E2F90E0EA3010F0C79601C053
:100B4000C0968D939D932F5F243149F74FBF8091BD
:100B5000E800877F8093E8006AE270E0CE010196AA
:100B600058DC12C0AE014F5F5F4F60911501D5DBBD
:100B7000BC01892B09F43CC09091E800977F9093C9
:100B8000E80089819A81A8DC8091E8008B778093C6
:100B9000E8002EC0803861F58091E800877F80935F
:100BA000E80080910C018093F1008091E8008E773D
:100BB0008093E8006FDD1CC081111AC09091130171
:100BC0009230B0F48091E800877F8093E8009093A2
:100BD0000C0160DD80910C01811106C08091E30061
:100BE00087FD02C081E001C084E08093100191DBA9
:100BF0008091E80083FF0AC08091E800877F80939E
:100C0000E8008091EB0080628093EB00AA960FB61B
:100C1000F894DEBF0FBECDBFDF91CF911F91089535
:100C20000895CF9380911001882399F0C091E90035
:100C3000CF709091EC00892F817090FD80E8C82BD7
:100C40001092E9008091E80083FD98DECF70C09398
:100C5000E900CF910895CF93DF93EC011B8682E0EA
:100C60008C83898761E0CE010196CCDC882331F04A
:100C700061E0CE010696DF91CF91C4CC80E0DF9198
:100C8000CF910895209110012430D1F49B01FC01F3
:100C900081818F708093E90040E050E064E070E073
:100CA000C9016DDB81110FC09091E800892F80721E
:100CB00095FD08C09091E8009E779093E800089514
:100CC00082E0089580E0089520911001243099F485
:100CD000FC0181818F708093E9002091F300809165
:100CE000F20090E0922B892B41F08091E8008E7702
:100CF0008093E800EECC82E0089580E00895FC0146
:100D000080911001843051F491819F709093E9009B
:100D10008091E80080FF02C0CF01D6CF0895F894FB
:020D2000FFCF03
:0C0D2200018240000001014000000100BF
:00000001FF
