:100000006BC09FC084C083C082C081C080C07FC0DD
:100010007EC07DC07CC07BC07AC079C078C077C00C
:1000200076C075C074C012034D00690043006F00B4
:100030004D006F0063006F0024036B0075007700B4
:10004000610074006100790040006E006900660084
:10005000740079002E0063006F006D000403090432
:10006000090265000201008032090400000001015C
:100070000000092401000109000101090401000236
:1000800001030000072401000141000624020101D0
:1000900000062402020200092403010301020100F8
:1000A0000924030204010101000905010308000AF3
:1000B000000005250101010905810308000A00006F
:1000C00005250101031201100100000008C016E41B
:1000D000050100010200010011241FBECFE5D4E09C
:1000E000DEBFCDBF10E0A0E6B0E0E0E1F8E002C086
:1000F00005900D92A636B107D9F720E0A6E6B0E04C
:1001000001C01D92A13AB207E1F711D37FC378CFA6
:10011000A82FB92F80E090E041E050EA609530E0F0
:1001200009C02D9182279795879510F084279527F0
:10013000305EC8F36F5FA8F30895EADF8D939D9357
:100140000895CF93CFB7CF93DF93C395849BE9F7FF
:10015000849B0BC0849B09C0849B07C0849B05C003
:10016000849B03C0849B01C08EC06F93C0918400A8
:10017000DD27C557DF4F2F9365E5849B03C02F9183
:100180006F91E6CF0F931F934F9320E040E15F9371
:1001900000B3047104FB27F93F9350E03BE039C002
:1001A000147140642F77012F5F5F1EC0406810B349
:1001B00014712F7752501FC0406400B32F77047121
:1001C000D1F15F5F00C023C0406210B32F7714717C
:1001D00091F15F5F00C025C004711027515012F4E7
:1001E0005D5F0000115027952C3F10B3C8F61471C5
:1001F0000127015027952C3FC8F64227499300B3A9
:10020000047110274F73115027952C3FA8F646957F
:10021000469510B3147179F00127015027952C3FB2
:1002200098F66B5A60F3315000B3B0F600C010E49A
:100230001ABF00271CC03B503195C31BD04010E4AF
:100240001ABF0881033C21F10B3411F12091820087
:100250001981110F1213EDCF4A81441F093669F13C
:100260000D3211F0013E29F74F7009F0042F009371
:1002700089003F915F914F911F910F912F916F9145
:10028000CAB7C6FD62CFDF91CF91CFBFCF9118958E
:1002900020918900222369F310918700112391F5A1
:1002A000343092F1309387002093830010918400C2
:1002B0003BE0311B3093840027C000918700013060
:1002C0000CF50AE54F7049F43091610034FD1DC012
:1002D00000936100CBE6D0E01CC03091760034FD85
:1002E00014C000937600C7E7D0E013C0052710E0E4
:1002F00000C0000002BB1AC0052710E0221F1DC06D
:1003000010E021C04AE502C032ED432FC4E1D0E045
:1003100032E011B31461949A02B311BB54E120E8A6
:1003200065E320FF052702BB279517951C3FF0F6D4
:100330006695B8F7B1F720FF052702BB27951795FB
:100340001C3FD0F62795179517FF052700001C3F87
:1003500002BBB0F629913A9519F70B7E10918800EF
:10036000110FC651D04002BB11F01093820010E46F
:100370001ABF006111B31B7E402F4B7E54E05A958B
:10038000F1F702BB11BB42BB74CFCF93C62F2091B4
:1003900076002E31F1F02091760024FF07C02091E5
:1003A000770038E823272093770003C02AE52093BD
:1003B0007600DC01E8E7F0E08C2F8E0F9D919193A1
:1003C0008E13FCCF6C2F88E790E0B7DECC5FC09334
:1003D0007600CF910895CF93DF93609187006350AB
:1003E00067FDCAC080918400CCE0D0E0C81BD10971
:1003F000C557DF4F80918300803118F4CE0196D12C
:10040000B9C08D3209F0A7C0683009F0B3C083ECE1
:1004100080936B008AE580936100109266003881BA
:10042000832F807619F0CE0168D182C09A812C8109
:10043000109274008981811113C03F71323051F4E0
:10044000213841F49091760081E09E3109F080E0FE
:10045000809374001092750024E730E082E064C05D
:10046000382F3D7F313081F491115BC0213809F084
:1004700058C0813011F48AE501C08EE18093760086
:100480008BE4809377004DC0853019F490938800F9
:1004900048C0863069F58B81813011F0823019F4C3
:1004A000CE0117D121C08330F1F4911108C08CE541
:1004B00090E0909386008093850084E015C0913091
:1004C00041F488E390E0909386008093850084E275
:1004D0000BC0923041F486E290E0909386008093C6
:1004E000850082E101C080E090E49093660020C026
:1004F000883081F0893019F490938A0007C08A30DF
:1005000061F08B3071F48BE4809377008AE58093FF
:10051000760007C02AE830E002C024E730E081E03E
:1005200003C024E730E080E030938600209385000C
:100530008F3F39F4988197FD8E8190E89093660003
:1005400007C09F81911104C09E81981708F4892FDC
:10055000809360000FC08091660087FF0BC0CE01C2
:10056000E3D08F3F21F48EE18093610003C08111BD
:1005700010926000109287008091610084FF56C045
:10058000809160008F3F09F451C0C82F893008F076
:10059000C8E08C1B8093600080916B0098E88927ED
:1005A00080936B00CC2389F18091660087FF08C09F
:1005B0006C2F8CE690E0AED0C82F893088F525C02E
:1005C000409185005091860086FF0BC0ACE6B0E0FC
:1005D000FA018C2F8A0F94919D9331968A13FBCF49
:1005E00009C0DA01ECE6F0E08C2F8E0F9D9191931B
:1005F0008E13FCCF2FEF2C0F30E02F5F3F4F240FD7
:10060000351F30938600209385006C2F8CE690E098
:1006100094DDCC5FCC3041F08FEF8093600004C05C
:100620008FEF80936000CEE1C093610084E190B3CE
:10063000947149F48150D9F7109288001092820089
:100640008AE580937600DF91CF91089585B7836026
:1006500085BF8BB780648BBF8BE4809377008AE57E
:10066000809376000895813041F028F0823039F08F
:10067000833039F00895C49A0895C29A0895969ADD
:100680000895C09A0895813041F028F0823039F001
:10069000833039F00895C4980895C29808959698C3
:1006A0000895C0980895CF93DF93D82FDCDFC6B3A9
:1006B000C5FBCC27C0F99A99C2609C99C460839904
:1006C000C8609999C0618D2FDEDF8C2FDF91CF91AB
:1006D0000895FC018381813041F485EC90E0909392
:1006E00086008093850082E1089580E690E09093F3
:1006F00086008093850085E60895FC018081982F0F
:100700009076903229F487FD03C081E080936700E2
:100710008FEF0895FC0110821182128213821482DD
:100720001582168287E0089581E0089508952EE0ED
:1007300088E190E00FB6F894A89581BD0FBE21BD69
:100740008BEE82BB84E181BB11BA87B3856187BB25
:100750008E9ABD9884B38B7E84BB81B3857F81BB29
:1007600075DF1092670078948FE7E82EA89533DE46
:1007700009E610E0F12C8F2D96DF80936800F801D8
:1007800090818917E1F1DF2CDD0CC0E0D0E02091F1
:10079000680030E00C2E02C0359527950A94E2F7E8
:1007A000822F8170F801208130E00C2E02C0359537
:1007B00027950A94E2F721708217C9F0882319F06F
:1007C000E092650002C0109265008C2F8D0D809321
:1007D00064008091760084FF04C064E082E690E0CB
:1007E000D4DD8FE39CE90197F1F700C0000021966A
:1007F000C230D10561F680916800F8018083F394DE
:100800000F5F1F4FF2E0FF12B6CFB0CFF894FFCFCB
:06081000FF5A09900000F0
:00000001FF
