:100000006BC09FC084C083C082C081C080C07FC0DD
:100010007EC07DC07CC07BC07AC079C078C077C00C
:1000200076C075C074C012034D00690043006F00B4
:100030004D006F0063006F0024036B0075007700B4
:10004000610074006100790040006E006900660084
:10005000740079002E0063006F006D000403090432
:10006000090265000201008032090400000001015C
:100070000000092401000109000101090401000236
:1000800001030000072401000141000624020101D0
:1000900000062402020200092403010301020100F8
:1000A0000924030204010101000905010308000AF3
:1000B000000005250101010905810308000A00006F
:1000C00005250101031201100100000008C016E41B
:1000D000050100010200010011241FBECFE5D4E09C
:1000E000DEBFCDBF10E0A0E6B0E0E6E6F9E002C07A
:1000F00005900D92A636B107D9F720E0A6E6B0E04C
:1001000001C01D92A33AB207E1F7AAD32AC478CF5F
:10011000A82FB92F80E090E041E050EA609530E0F0
:1001200009C02D9182279795879510F084279527F0
:10013000305EC8F36F5FA8F30895EADF8D939D9357
:100140000895CF93CFB7CF93DF93C395849BE9F7FF
:10015000849B0BC0849B09C0849B07C0849B05C003
:10016000849B03C0849B01C08EC06F93C0918600A6
:10017000DD27C357DF4F2F9365E5849B03C02F9185
:100180006F91E6CF0F931F934F9320E040E15F9371
:1001900000B3047104FB27F93F9350E03BE039C002
:1001A000147140642F77012F5F5F1EC0406810B349
:1001B00014712F7752501FC0406400B32F77047121
:1001C000D1F15F5F00C023C0406210B32F7714717C
:1001D00091F15F5F00C025C004711027515012F4E7
:1001E0005D5F0000115027952C3F10B3C8F61471C5
:1001F0000127015027952C3FC8F64227499300B3A9
:10020000047110274F73115027952C3FA8F646957F
:10021000469510B3147179F00127015027952C3FB2
:1002200098F66B5A60F3315000B3B0F600C010E49A
:100230001ABF00271CC03B503195C31BD04010E4AF
:100240001ABF0881033C21F10B3411F12091840085
:100250001981110F1213EDCF4A81441F093669F13C
:100260000D3211F0013E29F74F7009F0042F009371
:100270008B003F915F914F911F910F912F916F9143
:10028000CAB7C6FD62CFDF91CF91CFBFCF9118958E
:1002900020918B00222369F310918900112391F59D
:1002A000343092F1309389002093850010918600BC
:1002B0003BE0311B3093860027C00091890001305C
:1002C0000CF50AE54F7049F43091610034FD1DC012
:1002D00000936100CDE6D0E01CC03091780034FD81
:1002E00014C000937800C9E7D0E013C0052710E0E0
:1002F00000C0000002BB1AC0052710E0221F1DC06D
:1003000010E021C04AE502C032ED432FC4E1D0E045
:1003100032E011B31461949A02B311BB54E120E8A6
:1003200065E320FF052702BB279517951C3FF0F6D4
:100330006695B8F7B1F720FF052702BB27951795FB
:100340001C3FD0F62795179517FF052700001C3F87
:1003500002BBB0F629913A9519F70B7E10918A00ED
:10036000110FC651D04002BB11F01093840010E46D
:100370001ABF006111B31B7E402F4B7E54E05A958B
:10038000F1F702BB11BB42BB74CFCF93C62F2091B4
:1003900078002E31F1F02091780024FF07C02091E1
:1003A000790038E823272093790003C02AE52093B9
:1003B0007800DC01EAE7F0E08C2F8E0F9D9191939D
:1003C0008E13FCCF6C2F8AE790E0B7DECC5FC09332
:1003D0007800CF910895CF93DF93609189006350A7
:1003E00067FDCAC080918600CCE0D0E0C81BD1096F
:1003F000C357DF4F80918500803118F4CE0110D2B1
:10040000B9C08D3209F0A7C0683009F0B3C083ECE1
:1004100080936D008AE580936100109266003881B8
:10042000832F807619F0CE01E2D182C09A812C818F
:10043000109276008981811113C03F71323051F4DE
:10044000213841F49091780081E09E3109F080E0FC
:10045000809376001092770026E730E082E064C057
:10046000382F3D7F313081F491115BC0213809F084
:1004700058C0813011F48AE501C08EE18093780084
:100480008BE4809379004DC0853019F490938A00F5
:1004900048C0863069F58B81813011F0823019F4C3
:1004A000CE0191D121C08330F1F4911108C08CE5C7
:1004B00090E0909388008093870084E015C091308D
:1004C00041F488E390E0909388008093870084E271
:1004D0000BC0923041F486E290E0909388008093C4
:1004E000870082E101C080E090E49093660020C024
:1004F000883081F0893019F490938C0007C08A30DD
:1005000061F08B3071F48BE4809379008AE58093FD
:10051000780007C02CE830E002C026E730E081E038
:1005200003C026E730E080E0309388002093870006
:100530008F3F39F4988197FD8E8190E89093660003
:1005400007C09F81911104C09E81981708F4892FDC
:10055000809360000FC08091660087FF0BC0CE01C2
:100560005DD18F3F21F48EE18093610003C0811142
:1005700010926000109289008091610084FF56C043
:10058000809160008F3F09F451C0C82F893008F076
:10059000C8E08C1B8093600080916D0098E88927EB
:1005A00080936D00CC2389F18091660087FF08C09D
:1005B0006C2F8EE690E028D1C82F893088F525C0B1
:1005C000409187005091880086FF0BC0AEE6B0E0F6
:1005D000FA018C2F8A0F94919D9331968A13FBCF49
:1005E00009C0DA01EEE6F0E08C2F8E0F9D91919319
:1005F0008E13FCCF2FEF2C0F30E02F5F3F4F240FD7
:10060000351F30938800209387006C2F8EE690E092
:1006100094DDCC5FCC3041F08FEF8093600004C05C
:100620008FEF80936000CEE1C093610084E190B3CE
:10063000947149F48150D9F710928A001092840085
:100640008AE580937800DF91CF91089585B7836024
:1006500085BF8BB780648BBF8BE4809379008AE57C
:10066000809378000895813041F028F0823039F08D
:10067000833039F00895C49A0895C29A0895969ADD
:100680000895C09A0895813041F028F0823039F001
:10069000833039F00895C4980895C29808959698C3
:1006A0000895C0980895CF93DF93D82FDCDFC6B3A9
:1006B000C5FBCC27C0F99A99C2609C99C460839904
:1006C000C8609999C0618D2FDEDF8C2FDF91CF91AB
:1006D0000895813041F028F0823039F0833039F0CC
:1006E0000895A89A0895C39A0895C19A0895979A6B
:1006F0000895813041F028F0823039F0833039F0AC
:100700000895A8980895C3980895C1980895979852
:10071000089580E0EEDF81E0ECCF823079F028F4BC
:10072000882341F0813041F00895833049F08430CE
:1007300049F00895A9980895AB980895AD98089543
:100740009598089590980895823079F028F4882338
:1007500041F0813041F00895833049F0843049F010
:100760000895A99A0895AB9A0895AD9A0895959A17
:100770000895909A089580E0E7DF81E0E5CF0F9338
:100780001F93CF93DF9300D0CDB7DEB76A83898301
:10079000C0DFF1DF89819DDF6A81062F60FF02C023
:1007A00080E0BBDF01FF08C081E00F900F90DF9178
:1007B000CF911F910F91B1CF0F900F90DF91CF91FB
:1007C0001F910F910895FC018381813041F485ECE4
:1007D00090E0909388008093870082E1089580E6FE
:1007E00090E0909388008093870085E60895FC014F
:1007F0008081982F9076903229F487FD03C081E0A4
:10080000809367008FEF0895FC011082118212829D
:10081000138214821582168287E0089581E008957C
:10082000FC0120812F7038EF320F3230C0F432815A
:10083000E32FE6953170F0E0E859FF4F81E090E05A
:10084000032E01C0880F0A94EAF7293021F4908121
:10085000982B9083089580959081892380830895B3
:100860002EE088E190E00FB6F894A89581BD0FBE08
:1008700021BD8BEE82BB84E181BB11BA87B38A6054
:1008800087BB84B38B6284BB81B3816A81BB87B32E
:10089000856187BB8E9ABD9884B38B7E84BB81B300
:1008A000857F81BBD3DE1092670078949FE7C92EC5
:1008B000A89591DD88E6E82E80E0F82E0BE610E0A2
:1008C000D12CF70161917F018D2D59DF8D2DEBDE4C
:1008D00080936A00F80190818917E1F1BD2CBB0C6F
:1008E000C0E0D0E020916A0030E00C2E02C03595C7
:1008F00027950A94E2F7822F8170F801208130E079
:100900000C2E02C0359527950A94E2F721708217C4
:10091000C9F0882319F0C092650002C010926500EA
:100920008C2F8B0D809364008091780084FF04C02D
:1009300064E082E690E029DD8FE39CE90197F1F71E
:1009400000C000002196C230D10561F680916A0096
:10095000F8018083D3940F5F1F4FF2E0DF12B1CF15
:06096000A7CFF894FFCFC1
:06096600FF5A0990000099
:00000001FF
