:100000006BC09FC084C083C082C081C080C07FC0DD
:100010007EC07DC07CC07BC07AC079C078C077C00C
:1000200076C075C074C012034D00690043006F00B4
:100030004D006F0063006F0024036B0075007700B4
:10004000610074006100790040006E006900660084
:10005000740079002E0063006F006D000403090432
:10006000090265000201008032090400000001015C
:100070000000092401000109000101090401000236
:1000800001030000072401000141000624020101D0
:1000900000062402020200092403010301020100F8
:1000A0000924030204010101000905010308000AF3
:1000B000000005250101010905810308000A00006F
:1000C00005250101031201100100000008C016E41B
:1000D000050100010200010011241FBECFE5D4E09C
:1000E000DEBFCDBF10E0A0E6B0E0E6E1FAE002C07E
:1000F00005900D92A636B107D9F720E0A6E6B0E04C
:1001000001C01D92A83BB207E1F7FFD382C478CFAC
:10011000A82FB92F80E090E041E050EA609530E0F0
:1001200009C02D9182279795879510F084279527F0
:10013000305EC8F36F5FA8F30895EADF8D939D9357
:100140000895CF93CFB7CF93DF93C395849BE9F7FF
:10015000849B0BC0849B09C0849B07C0849B05C003
:10016000849B03C0849B01C08EC06F93C0918700A5
:10017000DD27C257DF4F2F9365E5849B03C02F9186
:100180006F91E6CF0F931F934F9320E040E15F9371
:1001900000B3047104FB27F93F9350E03BE039C002
:1001A000147140642F77012F5F5F1EC0406810B349
:1001B00014712F7752501FC0406400B32F77047121
:1001C000D1F15F5F00C023C0406210B32F7714717C
:1001D00091F15F5F00C025C004711027515012F4E7
:1001E0005D5F0000115027952C3F10B3C8F61471C5
:1001F0000127015027952C3FC8F64227499300B3A9
:10020000047110274F73115027952C3FA8F646957F
:10021000469510B3147179F00127015027952C3FB2
:1002200098F66B5A60F3315000B3B0F600C010E49A
:100230001ABF00271CC03B503195C31BD04010E4AF
:100240001ABF0881033C21F10B3411F12091850084
:100250001981110F1213EDCF4A81441F093669F13C
:100260000D3211F0013E29F74F7009F0042F009371
:100270008C003F915F914F911F910F912F916F9142
:10028000CAB7C6FD62CFDF91CF91CFBFCF9118958E
:1002900020918C00222369F310918A00112391F59B
:1002A000343092F130938A002093860010918700B9
:1002B0003BE0311B3093870027C000918A0001305A
:1002C0000CF50AE54F7049F43091610034FD1DC012
:1002D00000936100CEE6D0E01CC03091790034FD7F
:1002E00014C000937900CAE7D0E013C0052710E0DE
:1002F00000C0000002BB1AC0052710E0221F1DC06D
:1003000010E021C04AE502C032ED432FC4E1D0E045
:1003100032E011B31461949A02B311BB54E120E8A6
:1003200065E320FF052702BB279517951C3FF0F6D4
:100330006695B8F7B1F720FF052702BB27951795FB
:100340001C3FD0F62795179517FF052700001C3F87
:1003500002BBB0F629913A9519F70B7E10918B00EC
:10036000110FC651D04002BB11F01093850010E46C
:100370001ABF006111B31B7E402F4B7E54E05A958B
:10038000F1F702BB11BB42BB74CFCF93C62F2091B4
:1003900079002E31F1F02091790024FF07C02091DF
:1003A0007A0038E8232720937A0003C02AE52093B7
:1003B0007900DC01EBE7F0E08C2F8E0F9D9191939B
:1003C0008E13FCCF6C2F8BE790E0B7DECC5FC09331
:1003D0007900CF910895CF93DF9360918A006350A5
:1003E00067FDCAC080918700CCE0D0E0C81BD1096E
:1003F000C257DF4F80918600803118F4CE013CD285
:10040000B9C08D3209F0A7C0683009F0B3C083ECE1
:1004100080936E008AE580936100109266003881B7
:10042000832F807619F0CE010ED282C09A812C8162
:10043000109277008981811113C03F71323051F4DD
:10044000213841F49091790081E09E3109F080E0FB
:10045000809377001092780027E730E082E064C054
:10046000382F3D7F313081F491115BC0213809F084
:1004700058C0813011F48AE501C08EE18093790083
:100480008BE480937A004DC0853019F490938B00F3
:1004900048C0863069F58B81813011F0823019F4C3
:1004A000CE01BDD121C08330F1F4911108C08CE59B
:1004B00090E0909389008093880084E015C091308B
:1004C00041F488E390E0909389008093880084E26F
:1004D0000BC0923041F486E290E0909389008093C3
:1004E000880082E101C080E090E49093660020C023
:1004F000883081F0893019F490938D0007C08A30DC
:1005000061F08B3071F48BE480937A008AE58093FC
:10051000790007C02DE830E002C027E730E081E035
:1005200003C027E730E080E0309389002093880003
:100530008F3F39F4988197FD8E8190E89093660003
:1005400007C09F81911104C09E81981708F4892FDC
:10055000809360000FC08091660087FF0BC0CE01C2
:1005600089D18F3F21F48EE18093610003C0811116
:100570001092600010928A008091610084FF56C042
:10058000809160008F3F09F451C0C82F893008F076
:10059000C8E08C1B8093600080916E0098E88927EA
:1005A00080936E00CC2389F18091660087FF08C09C
:1005B0006C2F8FE690E054D1C82F893088F525C084
:1005C000409188005091890086FF0BC0AFE6B0E0F3
:1005D000FA018C2F8A0F94919D9331968A13FBCF49
:1005E00009C0DA01EFE6F0E08C2F8E0F9D91919318
:1005F0008E13FCCF2FEF2C0F30E02F5F3F4F240FD7
:10060000351F30938900209388006C2F8FE690E08F
:1006100094DDCC5FCC3041F08FEF8093600004C05C
:100620008FEF80936000CEE1C093610084E190B3CE
:10063000947149F48150D9F710928B001092850083
:100640008AE580937900DF91CF91089585B7836023
:1006500085BF8BB780648BBF8BE480937A008AE57B
:10066000809379000895813041F028F0823039F08C
:10067000833039F00895C49A0895C29A0895969ADD
:100680000895C09A0895813041F028F0823039F001
:10069000833039F00895C4980895C29808959698C3
:1006A0000895C0980895CF93DF93D82FDCDFC6B3A9
:1006B000C5FBCC27C0F99A99C2609C99C460839904
:1006C000C8608199C0618D2FDEDF8C2FDF91CF91C3
:1006D0000895813041F028F0823039F0833039F0CC
:1006E0000895A89A0895C39A0895C19A0895979A6B
:1006F0000895813041F028F0823039F0833039F0AC
:100700000895A8980895C3980895C1980895979852
:10071000089580E0EEDF81E0ECDF82E0EADF83E055
:10072000E8CF80E0D6DF81E0D4DF82E0D2DF83E073
:10073000D0CF823079F028F4882341F0813041F025
:100740000895833049F0843049F00895A9980895B8
:10075000AB980895AD980895959808959098089548
:10076000823079F028F4882341F0813041F00895F7
:10077000833049F0843049F00895A99A0895AB9ADE
:100780000895AD9A0895959A0895909A0895CF93F3
:10079000C0E08C2FE5DFCF5FC530D9F7CF9108954A
:1007A000CF93C0E08C2FC5DFCF5FC530D9F7CF9195
:1007B0000895EF92FF920F931F93CF93DF9300D092
:1007C0001F92CDB7DEB7042F6A837B838983A9DFAD
:1007D000E7DF89818EDF6A81E62E7B81F72E10E0CC
:1007E000F70181917F018370823029F0833041F0DD
:1007F000813041F403C0063028F402C0023010F406
:10080000812FAEDF1F5F153059F70F900F900F90BB
:10081000DF91CF911F910F91FF90EF900895FC0110
:100820008381813041F485EC90E09093890080933E
:10083000880082E1089580E690E09093890080939B
:10084000880085E60895FC018081982F907690328B
:1008500029F487FD03C081E0809367008FEF08953E
:10086000FC01108211821282138214821582168278
:1008700087E0089581E00895FC0140814F7088EF82
:10088000840F823060F58281338165E0B6D03F37D6
:1008900039F0303438F451E0311105C050E003C074
:1008A00053E001C052E0292F30E090E0493061F47C
:1008B00045E0489FF001499FF00D1124E20FF31F1E
:1008C000EC55FF4F5083089545E0489FF001499F44
:1008D000F00D1124E20FF31FEC55FF4F1082089525
:1008E00087B38A6087BB84B38B6284BB81B3816A20
:1008F00081BB87B3856187BB8E9ABD9884B38B7E9D
:1009000084BB81B3857F81BB08952EE088E190E0B0
:100910000FB6F894A89581BD0FBE21BD97DEE0DF2C
:100920001092670078948AE6C82E80E0D82E9FE760
:10093000B92EA89550DDCAE6D0E0E12CF12C1C2F91
:100940001C1940916800B7016C557F4F812F31DF32
:10095000909168009F5F9F3719F09093680002C0E4
:1009600010926800812F9FDE80936900988189171B
:10097000D1F1AE2C00E010E08091690090E0002EF3
:1009800002C0959587950A94E2F7282F21708881F7
:1009900090E0002E02C0959587950A94E2F7817049
:1009A0002817C9F0222319F0B092650002C01092F6
:1009B00065008A2D800F809364008091790084FF08
:1009C00004C064E082E690E0E0DC8FE99FE00197FC
:1009D000F1F700C000000F5F1F4F0530110561F6F1
:1009E00080916900888395E0E90EF11C219684E1ED
:1009F000E816F10409F0A3CF9CCF991B79E004C05D
:100A0000991F961708F0961B881F7A95C9F780954D
:060A10000895F894FFCFE9
:060A1600FF5A09900000E8
:00000001FF
