:100000006BC09FC084C083C082C081C080C07FC0DD
:100010007EC07DC07CC07BC07AC079C078C077C00C
:1000200076C075C074C012034D00690043006F00B4
:100030004D006F0063006F0024036B0075007700B4
:10004000610074006100790040006E006900660084
:10005000740079002E0063006F006D000403090432
:10006000090265000201008032090400000001015C
:100070000000092401000109000101090401000236
:1000800001030000072401000141000624020101D0
:1000900000062402020200092403010301020100F8
:1000A0000924030204010101000905010308000AF3
:1000B000000005250101010905810308000A00006F
:1000C00005250101031201100100000008C016E41B
:1000D000050100010200010011241FBECFE5D4E09C
:1000E000DEBFCDBF10E0A0E6B0E0E0EBF9E002C07B
:1000F00005900D92A636B107D9F720E0A6E6B0E04C
:1001000001C01D92A63AB207E1F7B7D34FC478CF2A
:10011000A82FB92F80E090E041E050EA609530E0F0
:1001200009C02D9182279795879510F084279527F0
:10013000305EC8F36F5FA8F30895EADF8D939D9357
:100140000895CF93CFB7CF93DF93C395849BE9F7FF
:10015000849B0BC0849B09C0849B07C0849B05C003
:10016000849B03C0849B01C08EC06F93C0918500A7
:10017000DD27C457DF4F2F9365E5849B03C02F9184
:100180006F91E6CF0F931F934F9320E040E15F9371
:1001900000B3047104FB27F93F9350E03BE039C002
:1001A000147140642F77012F5F5F1EC0406810B349
:1001B00014712F7752501FC0406400B32F77047121
:1001C000D1F15F5F00C023C0406210B32F7714717C
:1001D00091F15F5F00C025C004711027515012F4E7
:1001E0005D5F0000115027952C3F10B3C8F61471C5
:1001F0000127015027952C3FC8F64227499300B3A9
:10020000047110274F73115027952C3FA8F646957F
:10021000469510B3147179F00127015027952C3FB2
:1002200098F66B5A60F3315000B3B0F600C010E49A
:100230001ABF00271CC03B503195C31BD04010E4AF
:100240001ABF0881033C21F10B3411F12091830086
:100250001981110F1213EDCF4A81441F093669F13C
:100260000D3211F0013E29F74F7009F0042F009371
:100270008A003F915F914F911F910F912F916F9144
:10028000CAB7C6FD62CFDF91CF91CFBFCF9118958E
:1002900020918A00222369F310918800112391F59F
:1002A000343092F1309388002093840010918500BF
:1002B0003BE0311B3093850027C00091880001305E
:1002C0000CF50AE54F7049F43091610034FD1DC012
:1002D00000936100CCE6D0E01CC03091770034FD83
:1002E00014C000937700C8E7D0E013C0052710E0E2
:1002F00000C0000002BB1AC0052710E0221F1DC06D
:1003000010E021C04AE502C032ED432FC4E1D0E045
:1003100032E011B31461949A02B311BB54E120E8A6
:1003200065E320FF052702BB279517951C3FF0F6D4
:100330006695B8F7B1F720FF052702BB27951795FB
:100340001C3FD0F62795179517FF052700001C3F87
:1003500002BBB0F629913A9519F70B7E10918900EE
:10036000110FC651D04002BB11F01093830010E46E
:100370001ABF006111B31B7E402F4B7E54E05A958B
:10038000F1F702BB11BB42BB74CFCF93C62F2091B4
:1003900077002E31F1F02091770024FF07C02091E3
:1003A000780038E823272093780003C02AE52093BB
:1003B0007700DC01E9E7F0E08C2F8E0F9D9191939F
:1003C0008E13FCCF6C2F89E790E0B7DECC5FC09333
:1003D0007700CF910895CF93DF93609188006350A9
:1003E00067FDCAC080918500CCE0D0E0C81BD10970
:1003F000C457DF4F80918400803118F4CE0122D29F
:10040000B9C08D3209F0A7C0683009F0B3C083ECE1
:1004100080936C008AE580936100109266003881B9
:10042000832F807619F0CE01F4D182C09A812C817D
:10043000109275008981811113C03F71323051F4DF
:10044000213841F49091770081E09E3109F080E0FD
:10045000809375001092760025E730E082E064C05A
:10046000382F3D7F313081F491115BC0213809F084
:1004700058C0813011F48AE501C08EE18093770085
:100480008BE4809378004DC0853019F490938900F7
:1004900048C0863069F58B81813011F0823019F4C3
:1004A000CE01A3D121C08330F1F4911108C08CE5B5
:1004B00090E0909387008093860084E015C091308F
:1004C00041F488E390E0909387008093860084E273
:1004D0000BC0923041F486E290E0909387008093C5
:1004E000860082E101C080E090E49093660020C025
:1004F000883081F0893019F490938B0007C08A30DE
:1005000061F08B3071F48BE4809378008AE58093FE
:10051000770007C02BE830E002C025E730E081E03B
:1005200003C025E730E080E0309387002093860009
:100530008F3F39F4988197FD8E8190E89093660003
:1005400007C09F81911104C09E81981708F4892FDC
:10055000809360000FC08091660087FF0BC0CE01C2
:100560006FD18F3F21F48EE18093610003C0811130
:1005700010926000109288008091610084FF56C044
:10058000809160008F3F09F451C0C82F893008F076
:10059000C8E08C1B8093600080916C0098E88927EC
:1005A00080936C00CC2389F18091660087FF08C09E
:1005B0006C2F8DE690E03AD1C82F893088F525C0A0
:1005C000409186005091870086FF0BC0ADE6B0E0F9
:1005D000FA018C2F8A0F94919D9331968A13FBCF49
:1005E00009C0DA01EDE6F0E08C2F8E0F9D9191931A
:1005F0008E13FCCF2FEF2C0F30E02F5F3F4F240FD7
:10060000351F30938700209386006C2F8DE690E095
:1006100094DDCC5FCC3041F08FEF8093600004C05C
:100620008FEF80936000CEE1C093610084E190B3CE
:10063000947149F48150D9F7109289001092830087
:100640008AE580937700DF91CF91089585B7836025
:1006500085BF8BB780648BBF8BE4809378008AE57D
:10066000809377000895813041F028F0823039F08E
:10067000833039F00895C49A0895C29A0895969ADD
:100680000895C09A0895813041F028F0823039F001
:10069000833039F00895C4980895C29808959698C3
:1006A0000895C0980895CF93DF93D82FDCDFC6B3A9
:1006B000C5FBCC27C0F99A99C2609C99C460839904
:1006C000C8609999C0618D2FDEDF8C2FDF91CF91AB
:1006D0000895813041F028F0823039F0833039F0CC
:1006E0000895A89A0895C39A0895C19A0895979A6B
:1006F0000895813041F028F0823039F0833039F0AC
:100700000895A8980895C3980895C1980895979852
:10071000089580E0EEDF81E0ECCF823079F028F4BC
:10072000882341F0813041F00895833049F08430CE
:1007300049F00895A9980895AB980895AD98089543
:100740009598089590980895823079F028F4882338
:1007500041F0813041F00895833049F0843049F010
:100760000895A99A0895AB9A0895AD9A0895959A17
:100770000895909A089580E0E7DF81E0E5CFEF9259
:10078000FF920F931F93CF93DF9300D01F92CDB7AB
:10079000DEB7042F6A837B838983BBDFECDF89812B
:1007A00098DF6A81E62E7B81F72E10E0F7018191B8
:1007B0007F018370823029F0833041F0813041F431
:1007C00003C0063028F402C0023010F4812FA5DFE8
:1007D0001F5F123059F70F900F900F90DF91CF915C
:1007E0001F910F91FF90EF900895FC01838181305C
:1007F00041F485EC90E0909387008093860082E13D
:10080000089580E690E0909387008093860085E6C7
:100810000895FC018081982F9076903229F487FD0D
:1008200003C081E0809367008FEF0895FC01108280
:1008300011821282138214821582168287E0089533
:1008400081E00895FC0140814F7058EF540F523001
:1008500098F48281E82FE695282F217030E0F0E0AF
:10086000EE0FFF1FE20FF31FEE55FF4F493019F453
:1008700081E080830895108208952EE088E190E061
:100880000FB6F894A89581BD0FBE21BD8BEE82BB3B
:1008900084E181BB11BA87B38A6087BB84B38B6262
:1008A00084BB81B3816A81BB87B3856187BB8E9A24
:1008B000BD9884B38B7E84BB81B3857F81BBC6DE4C
:1008C0001092670078941092A20081E08093A300B8
:1008D00082E08093A40083E08093A5002FE7C22EDE
:1008E000A89579DD92EAE92E90E0F92E0AE610E06B
:1008F000D12C40916800B7018D2D41DF80916800B7
:100900008F5F8F3719F08093680002C010926800E3
:100910008D2DC9DE80936900F80190818917E1F17E
:10092000BD2CBB0CC0E0D0E02091690030E00C2E63
:1009300002C0359527950A94E2F7822F8170F8015D
:10094000208130E00C2E02C0359527950A94E2F7FD
:1009500021708217C9F0882319F0C092650002C087
:10096000109265008C2F8B0D80936400809177002E
:1009700084FF04C064E082E690E007DD8FE99FE039
:100980000197F1F700C000002196C230D10561F651
:1009900080916900F8018083D394F2E0EF0EF11C9E
:1009A0000F5F1F4F82E0D812A4CF9ACFF894FFCFE9
:0609B000FF5A099000004F
:00000001FF
