:100000006BC09FC084C083C082C081C080C07FC0DD
:100010007EC07DC07CC07BC07AC079C078C077C00C
:1000200076C075C074C012034D00690043006F00B4
:100030004D006F0063006F0024036B0075007700B4
:10004000610074006100790040006E006900660084
:10005000740079002E0063006F006D000403090432
:10006000090265000201008032090400000001015C
:100070000000092401000109000101090401000236
:1000800001030000072401000141000624020101D0
:1000900000062402020200092403010301020100F8
:1000A0000924030204010101000905010308000AF3
:1000B000000005250101010905810308000A00006F
:1000C00005250101031201100100000008C016E41B
:1000D000050100010200010011241FBECFE5D4E09C
:1000E000DEBFCDBF10E0A0E6B0E0E8EDF7E002C073
:1000F00005900D92A236B107D9F720E0A2E6B0E054
:1001000001C01D92AA39B207E1F7DBD263C378CFF1
:10011000A82FB92F80E090E041E050EA609530E0F0
:1001200009C02D9182279795879510F084279527F0
:10013000305EC8F36F5FA8F30895EADF8D939D9357
:100140000895CF93CFB7CF93DF93C395849BE9F7FF
:10015000849B0BC0849B09C0849B07C0849B05C003
:10016000849B03C0849B01C08EC06F93C0917D00AF
:10017000DD27CC57DF4F2F9365E5849B03C02F917C
:100180006F91E6CF0F931F934F9320E040E15F9371
:1001900000B3047104FB27F93F9350E03BE039C002
:1001A000147140642F77012F5F5F1EC0406810B349
:1001B00014712F7752501FC0406400B32F77047121
:1001C000D1F15F5F00C023C0406210B32F7714717C
:1001D00091F15F5F00C025C004711027515012F4E7
:1001E0005D5F0000115027952C3F10B3C8F61471C5
:1001F0000127015027952C3FC8F64227499300B3A9
:10020000047110274F73115027952C3FA8F646957F
:10021000469510B3147179F00127015027952C3FB2
:1002200098F66B5A60F3315000B3B0F600C010E49A
:100230001ABF00271CC03B503195C31BD04010E4AF
:100240001ABF0881033C21F10B3411F120917B008E
:100250001981110F1213EDCF4A81441F093669F13C
:100260000D3211F0013E29F74F7009F0042F009371
:1002700082003F915F914F911F910F912F916F914C
:10028000CAB7C6FD62CFDF91CF91CFBFCF9118958E
:1002900020918200222369F310918000112391F5AF
:1002A000343092F13093800020937C0010917D00D7
:1002B0003BE0311B30937D0027C00091800001306E
:1002C0000CF50AE54F7049F43091610034FD1DC012
:1002D00000936100C4E6D0E01CC030916F0034FD93
:1002E00014C000936F00C0E7D0E013C0052710E0F2
:1002F00000C0000002BB1AC0052710E0221F1DC06D
:1003000010E021C04AE502C032ED432FC4E1D0E045
:1003100032E011B31461949A02B311BB54E120E8A6
:1003200065E320FF052702BB279517951C3FF0F6D4
:100330006695B8F7B1F720FF052702BB27951795FB
:100340001C3FD0F62795179517FF052700001C3F87
:1003500002BBB0F629913A9519F70B7E10918100F6
:10036000110FC651D04002BB11F010937B0010E476
:100370001ABF006111B31B7E402F4B7E54E05A958B
:10038000F1F702BB11BB42BB74CFCF93C62F2091B4
:100390006F002E31F1F020916F0024FF07C02091F3
:1003A000700038E823272093700003C02AE52093CB
:1003B0006F00DC01E1E7F0E08C2F8E0F9D919193AF
:1003C0008E13FCCF6C2F81E790E0B7DECC5FC0933B
:1003D0006F00CF910895CF93DF93609180006350B9
:1003E00067FDCAC080917D00CCE0D0E0C81BD10978
:1003F000CC57DF4F80917C00803118F4CE0160D162
:10040000B9C08D3209F0A7C0683009F0B3C083ECE1
:10041000809364008AE580936100109262003881C5
:10042000832F807619F0CE0132D182C09A812C813F
:1004300010926D008981811113C03F71323051F4E7
:10044000213841F490916F0081E09E3109F080E005
:1004500080936D0010926E002DE630E082E064C063
:10046000382F3D7F313081F491115BC0213809F084
:1004700058C0813011F48AE501C08EE180936F008D
:100480008BE4809370004DC0853019F49093810007
:1004900048C0863069F58B81813011F0823019F4C3
:1004A000CE01E1D021C08330F1F4911108C08CE578
:1004B00090E090937F0080937E0084E015C091309F
:1004C00041F488E390E090937F0080937E0084E283
:1004D0000BC0923041F486E290E090937F008093CD
:1004E0007E0082E101C080E090E49093620020C031
:1004F000883081F0893019F49093830007C08A30E6
:1005000061F08B3071F48BE4809370008AE5809306
:100510006F0007C023E830E002C02DE630E081E044
:1005200003C02DE630E080E030937F0020937E0012
:100530008F3F39F4988197FD8E8190E89093620007
:1005400007C09F81911104C09E81981708F4892FDC
:10055000809360000FC08091620087FF0BC0CE01C6
:10056000ADD08F3F21F48EE18093610003C08111F3
:1005700010926000109280008091610084FF56C04C
:10058000809160008F3F09F451C0C82F893008F076
:10059000C8E08C1B809360008091640098E88927F4
:1005A00080936400CC2389F18091620087FF08C0AA
:1005B0006C2F85E690E078D0C82F893088F525C06B
:1005C00040917E0050917F0086FF0BC0A5E6B0E011
:1005D000FA018C2F8A0F94919D9331968A13FBCF49
:1005E00009C0DA01E5E6F0E08C2F8E0F9D91919322
:1005F0008E13FCCF2FEF2C0F30E02F5F3F4F240FD7
:10060000351F30937F0020937E006C2F85E690E0AD
:1006100094DDCC5FCC3041F08FEF8093600004C05C
:100620008FEF80936000CEE1C093610084E190B3CE
:10063000947149F48150D9F71092810010927B0097
:100640008AE580936F00DF91CF91089585B783602D
:1006500085BF8BB780648BBF8BE4809370008AE585
:1006600080936F000895FC018381813041F485EC13
:1006700090E090937F0080937E0082E1089580E671
:1006800090E090937F0080937E0085E60895FC01C2
:100690008081982F9076903229F487FD03C081E005
:1006A000809363008FEF0895FC0110821182128203
:1006B000138214821582168287E0089581E00895DE
:1006C0000895CF93DF93CDB7DEB728970FB6F89490
:1006D000DEBF0FBECDBF2EE088E190E00FB6F894EC
:1006E000A89581BD0FBE21BD8BEE82BB84E181BB8D
:1006F00011BA8FEF85BB14BAA9DF1092630078940A
:10070000912CA12C11E009E020E9F22E3FE7E32E25
:1007100048E0D42E50E8C52EA8955DDE23B391E0C5
:1007200080E0392F322321F49CE3B92EB80E0DC09E
:10073000990F8E5F8E3040F4863021F08D3089F72E
:100740008CE0EFCF85E0EDCFB12CAB1411F0992404
:10075000939480916F0084FFDFCF9920E9F2AA2063
:1007600031F0D982CA82AB821C8264E001C060E0B1
:10077000BB2041F1E1E0F0E0EC0FFD1FE60FF11DC1
:10078000008381E0860FE1E0F0E0EC0FFD1FE80F51
:10079000F11DF08283E0860F92E0960FE1E0F0E039
:1007A000EC0FFD1FE90FF11DB0826C5FE1E0F0E09E
:1007B000EC0FFD1FE80FF11DE082683019F4109373
:1007C000630002C010926300CE010196DEDDAB2C07
:0807D000912CA2CFF894FFCF99
:0207D800FF5AC6
:00000001FF
