:10000000B0C00000C9C00000C7C00000C5C00000EB
:10001000C3C00000C1C00000BFC00000BDC00000E0
:10002000BBC00000B9C0000019C40000B5C000008A
:10003000B3C00000B1C00000AFC00000ADC0000000
:10004000ABC00000A9C00000A7C00000A5C0000010
:10005000A3C00000A1C000009FC000009DC0000020
:100060009BC0000099C0000097C0000095C0000030
:1000700093C0000091C000008FC000008DC0000040
:100080008BC0000089C0000087C0000085C0000050
:1000900083C0000081C000007FC000007DC0000060
:1000A0007BC0000079C0000077C000001E034C0038
:1000B00055004600410020004D0049004400490021
:1000C0002000440065006D006F000000180344002C
:1000D000650061006E002000430061006D00650056
:1000E00072006100000004030904090265000201B6
:1000F00000C03209040000000101000009240100D1
:1001000001090001010904010002010300000724A4
:10011000010001410006240201010006240202023E
:100120000009240301030102010009240302040160
:10013000010100090501024000050000052501013B
:100140000109058202400005000005250101031296
:1001500001100100000008EB03482001000102002B
:10016000010011241FBECFEFDAE0DEBFCDBF11E0EA
:10017000A0E0B1E0EEECFDE002C005900D92AC30E5
:10018000B107D9F711E0ACE0B1E001C01D92A9318F
:10019000B107E1F748D019C633CF84B7877F84BF52
:1001A00088E10FB6F89480936000109260000FBE53
:1001B00090E080E80FB6F89480936100909361001E
:1001C0000FBE209A2898559A5D983F9A479829D350
:1001D0005198509AECE7F0E080818F77808380819E
:1001E000806480838081877C808380818760808336
:1001F000EAE7F0E080818760808380818068808387
:10020000089580917A00806480937A0080917A00CA
:1002100086FDFCCF80917800909179000895589ADE
:10022000089558980895CF93DF93CDB7DEB72897F8
:100230000FB6F894DEBF0FBECDBFAFDF7894D9B054
:100240008D2D8270D82EDDDF7C0139E0B32E40E9A0
:10025000A42ECC24C3945BE0952E60EB862EBE01C9
:100260006B5F7F4F80E091E08CD5882369F08D81B2
:100270008930A9F7CF828885811102C0D0DFEFCF06
:100280008F3769F7CEDFEBCFBCDF8C019C012E19D5
:100290003F0937FF03C03195219531092E313105D2
:1002A000ACF099828A82CB82C80123E0969587952B
:1002B0002A95E1F78C83BE016F5F7F4F80E091E06C
:1002C00018D580E091E034D5780118C019B11270CA
:1002D0001D15A1F082E0D81611F080E001C08FE773
:1002E000B982AA82CB828C83BE016F5F7F4F80E090
:1002F00091E0FFD480E091E01BD5D12E80E091E029
:1003000032D5C4D4ACCF0895089580E091E0DAC42A
:100310000895292F33272230310559F02330310534
:1003200069F021303105F9F482E190E02FE431E009
:100330001EC085E690E02AEE30E019C09927813092
:10034000910541F08230910541F0892B61F4E6EE90
:10035000F0E005C0ECECF0E002C0ECEAF0E08491E3
:1003600090E09F0104C080E090E020E030E0FA01DE
:10037000318320830895CF92DF92EF92FF920F9303
:100380001F93CF93DF937C018B01EA01DAD18111B6
:1003900031C0209731F088819981081B190BE80E34
:1003A000F91EC12CD12C0115110519F18091E8001D
:1003B00085FD14C08091E8008E778093E80066D4B4
:1003C000209741F0888199818C0D9D1D99838883A8
:1003D00085E010C0B6D1882331F30CC0F7018191BC
:1003E0007F018093F10001501109FFEFCF1ADF0A5E
:1003F000DACF80E0DF91CF911F910F91FF90EF90C6
:10040000DF90CF900895CF92DF92EF92FF920F93FB
:100410001F93CF93DF937C018B01EA0192D181116D
:1004200031C0209731F088819981081B190BE80EA3
:10043000F91EC12CD12C0115110519F18091E8008C
:1004400085FD14C08091E8008B778093E8001ED46E
:10045000209741F0888199818C0D9D1D9983888317
:1004600085E010C06ED1882331F30CC08091F1007B
:10047000F70181937F0101501109FFEFCF1ADF0AC5
:10048000DACF80E0DF91CF911F910F91FF90EF9035
:10049000DF90CF9008952091170130911801261711
:1004A000370748F06115710539F42091E8002E777F
:1004B0002093E80001C0B901FC0120E0611571053D
:1004C000B9F180911001882309F440C0853009F406
:1004D0003FC08091E80083FD3DC08091E80082FF2D
:1004E00006C08091E80082FF26C080E008958091D8
:1004F000E80080FFE3CF2091F3008091F20090E0CC
:10050000922B6115710551F08830910538F42191D5
:100510002093F100615071090196F3CF21E0089713
:1005200009F020E08091E8008E778093E800C6CF44
:100530002111C7CFD6CF80911001882339F08530A3
:1005400039F08091E80083FFCCCF04C082E00895A9
:1005500083E0089581E008952091170130911801FA
:100560002617370748F06115710539F42091E80026
:100570002E772093E80001C0B901FC0120E061154D
:100580007105C1F180911001882309F441C08530C3
:1005900009F440C08091E80083FD3EC08091E800EE
:1005A00082FF06C08091E80082FF27C080E00895A6
:1005B0008091E80080FFE3CF2091F3008091F2006A
:1005C00090E0922B6115710559F08830910540F447
:1005D00024912093F1003196615071090196F2CF78
:1005E00021E0089709F020E08091E8008E77809361
:1005F000E800C5CF2111C6CFD5CF80911001882347
:1006000039F0853039F08091E80083FFCBCF04C00A
:1006100082E0089583E0089581E00895982F97304F
:1006200058F59093E900981739F07091EC002091FB
:10063000ED005091F00003C0242F762F50E021FFF1
:1006400019C03091EB003E7F3093EB003091ED000C
:100650003D7F3093ED003091EB0031603093EB0043
:100660007093EC002093ED005093F0002091EE0089
:1006700027FF07C09F5FD3CF8F708093E90081E091
:10068000089580E008950F931F93CF93DF93062F73
:10069000EC0110E0101771F19881992341F12C8140
:1006A000E981FA817B81892F8F70873010F080E09B
:1006B00022C0223010F056E001C052E028E030E0C5
:1006C00040E02E173F0720F44F5F220F331FF9CF72
:1006D0004295407F452B692F661F6627661F90E471
:1006E000799F90011124622B99DF882301F31F5F0A
:1006F0002596D0CF81E0DF91CF911F910F91089582
:100700008091110187FD05C08091E80080FF0EC037
:1007100012C08091E80082FD05C080911001811116
:10072000F8CF08958091E8008B7708C08091100180
:100730008111EACF08958091E8008E778093E800D8
:1007400008958091E4009091E50045E62091EC0049
:1007500020FF21C02091E80020FD21C02091100140
:10076000222389F0253089F02091EB0025FD0FC070
:100770002091E4003091E5002817390739F3415002
:1007800041F0C901E3CF82E0089583E0089581E05C
:10079000089584E008952091E80022FFDFCF80E0F3
:1007A00008950F931F93CF93DF934BD052D0C8ED92
:1007B000D0E088818F77888388818068888388816A
:1007C0008F7D888319BC1092100110920C01109239
:1007D0000E0110920D0100EE10E0F80180818B7F78
:1007E000808388818160888342E060E080E016DF5A
:1007F000E1EEF0E080818E7F8083E2EEF0E08081A8
:1008000081608083808188608083F80180818E7F11
:100810008083888180618883DF91CF911F910F91C0
:100820000895E8EDF0E080818F7E8083E7EDF0E0D1
:1008300080818160808384E082BF81E080930F01AA
:10084000B0CFE8EDF0E080818E7F80831092E200EF
:1008500008951092DA001092E10008951F920F920D
:100860000FB60F9211242F933F934F935F936F9383
:100870007F938F939F93AF93BF93EF93FF93809159
:10088000E10082FF0AC08091E20082FF06C08091F1
:10089000E1008B7F8093E100F8D18091DA0080FF46
:1008A0001DC08091D80080FF19C08091DA008E7F32
:1008B0008093DA008091D90080FF0CC080E189BD6F
:1008C00082E189BD09B400FEFDCF81E08093100173
:1008D0001ADD04C019BC1092100116DD8091E100F0
:1008E00080FF18C08091E20080FF14C08091E20078
:1008F0008E7F8093E2008091E20080618093E2002D
:100900008091D80080628093D80019BC85E08093E4
:100910001001BBD18091E10084FF2FC08091E200E3
:1009200084FF2BC080E189BD82E189BD09B400FE4E
:10093000FDCF8091D8008F7D8093D8008091E10019
:100940008F7E8093E1008091E2008F7E8093E200B1
:100950008091E20081608093E20080910C01882305
:1009600011F084E007C08091E30087FF02C083E0BC
:1009700001C081E08093100188D18091E10083FF64
:1009800022C08091E20083FF1EC08091E100877F3A
:100990008093E10082E08093100110920C0180911D
:1009A000E1008E7F8093E1008091E2008E7F809352
:1009B000E2008091E20080618093E20042E060E02A
:1009C00080E02CDE62D1FF91EF91BF91AF919F91BA
:1009D0008F917F916F915F914F913F912F910F90E8
:1009E0000FBE0F901F9018951F93CF93DF93CDB735
:1009F000DEB7AA970FB6F894DEBF0FBECDBFE1E118
:100A0000F1E08091F100819321E0E931F207C9F72B
:100A10007FDC8091E80083FF20C1909111018091DB
:100A20001201853009F477C030F4813081F168F02B
:100A3000833069F112C1883009F4E1C0893009F4CA
:100A4000F0C0863009F009C188C0903881F0923832
:100A500009F003C1809115018F708093E9008091A6
:100A6000EB0085FB882780F91092E90006C0809191
:100A70000D0190910E01911182609091E800977F95
:100A80009093E8008093F1001092F100C3C0292FE9
:100A90002D7F09F0E2C0992319F0923061F0DDC09A
:100AA00090911301913009F0D8C0833009F090E0A3
:100AB00090930E012AC090911301911126C02091AC
:100AC00015012F7009F4C9C02093E9009091EB0043
:100AD00090FF1BC0833021F48091EB00806213C033
:100AE0008091EB0080618093EB0081E090E0022E2A
:100AF00001C0880F0A94EAF78093EA001092EA0096
:100B00008091EB0088608093EB001092E900809167
:100B1000E800877F82C09111A0C0109113011F7758
:100B20008091E3008078812B8093E3008091E8003E
:100B3000877F8093E800E4DD8091E80080FFFCCFB0
:100B40008091E30080688093E300112311F083E03B
:100B500001C082E08093100180C09058923008F06C
:100B60007CC080911301909114018C3D23E0920789
:100B700071F583E08A838AE289834FB7F894DE01B6
:100B8000139620E03EE051E2E32FF0E0509357004F
:100B9000E49120FF03C0E295EF703F5FEF708E2F6E
:100BA00090E0EA3010F0C79601C0C0968D939D93F7
:100BB0002F5F243149F74FBF8091E800877F8093F2
:100BC000E8006AE270E0CE01019665DC12C0AE0179
:100BD0004F5F5F4F609115019CDB009709F43DC0AA
:100BE0002091E800277F2093E800BC0189819A8149
:100BF000B3DC8091E8008B778093E8002EC09038BA
:100C000061F58091E800877F8093E80080910C0176
:100C10008093F1008091E8008E778093E80070DD8A
:100C20001CC091111AC0909113019230B0F48091C0
:100C3000E800877F8093E80090930C0161DD80914C
:100C40000C01811104C08091E30087FF02C084E0A1
:100C500001C081E08093100158DB8091E80083FFA0
:100C60000AC08091E800877F8093E8008091EB00C4
:100C700080628093EB00AA960FB6F894DEBF0FBE99
:100C8000CDBFDF91CF911F9108950895CF938091AB
:100C900010018823A9F08091E9008F709091EC00F9
:100CA00090FF02C090E801C090E0C92FC82B1092BD
:100CB000E9008091E80083FD97DECF70C093E900E2
:100CC000CF910895CF93DF93EC011B8682E08C8354
:100CD000898761E0CE010196D6DC882331F061E09E
:100CE000CE010696DF91CF91CECC80E0DF91CF91FF
:100CF0000895FC01CB01209110012430A9F4218139
:100D00002F702093E90040E050E064E070E033DBB6
:100D100081110DC08091E80085FD08C08091E80038
:100D20008E778093E80002C082E0089580E0089505
:100D300020911001243099F4FC0181818F708093FF
:100D4000E9002091F3008091F20090E0922B892B32
:100D500041F08091E8008E778093E800F2CC82E049
:100D6000089580E0089520911001243049F4FC0199
:100D700021812F702093E9002091E80020FDD8CF39
:100D80000895FC01CB0120911001243011F080E086
:100D9000089526812F702093E9002091E80022FF1A
:100DA000F6CF2091E80025FFF2CF40E050E064E06C
:100DB00070E029DB8091E80085FD05C08091E800A6
:0E0DC0008B778093E80081E00895F894FFCFD0
:0C0DCE0001824000000101400000010013
:00000001FF
